:020000022000DC
:10600000000004206D4C0300AD4C030031980300E8
:10601000B14C0300B34C0300B54C0300000000007A
:106020000000000000000000000000008581030067
:10603000B94C030000000000A5810300BD4C030023
:10604000F5820300BF4C0300BF4C0300BF4C0300AC
:10605000BF4C0300BF4C0300BF4C0300BF4C030008
:10606000BF4C0300BF4C0300BF4C0300BF4C0300F8
:10607000BF4C0300BF4C0300BF4C0300BF4C0300E8
:10608000BF4C0300DD7E0300BF4C0300BF4C030088
:10609000BF4C0300BF4C03005DDB0200BF4C03009C
:1060A000BF4C0300BF4C0300BF4C0300BF4C0300B8
:1060B000BF4C0300BF4C03000000000000000000C4
:1060C000BF4C0300BF4C0300BF4C0300BF4C030098
:1060D000BF4C0300BF4C0300BF4C03005D940300A2
:1060E000BF4C0300BF4C0300BF4C03000000000086
:1060F00000000000BF4C030000000000BF4C030084
:10610000000000000000000000000000000000008F
:10611000000000000000000000000000000000007F
:10612000000000000000000000000000000000006F
:10613000000000000000000000000000000000005F
:10614000000000000000000000000000000000004F
:10615000000000000000000000000000000000003F
:10616000000000000000000000000000000000002F
:10617000000000000000000000000000000000001F
:10618000000000000000000000000000000000000F
:1061900000000000000000000000000000000000FF
:1061A00000000000000000000000000000000000EF
:1061B00000000000000000000000000000000000DF
:1061C00000000000000000000000000000000000CF
:1061D00000000000000000000000000000000000BF
:1061E00000000000000000000000000000000000AF
:1061F000000000000000000000000000000000009F
:10620000F1EE103A43F08073E1EE103A704700BFB0
:1062100010B5054C237833B9044B13B10448AFF3E0
:1062200000800123237010BDE86200200000000000
:106230001018040008B5034B1BB103490348AFF322
:10624000008008BD00000000EC620020101804006F
:10625000154B002B08BF134B9D46A3F5803A002138
:106260008B460F461348144A121A16F0EFF90F4BDB
:10627000002B00D098470E4B002B00D098470020F1
:10628000002104000D000D48002802D00C48AFF397
:10629000008016F071F92000290013F067F916F05C
:1062A00045F900BF000008000000042000000000C5
:1062B00000000000E862002080D000200000000004
:1062C0000000000001220649026010B44FF47F0470
:1062D00000224460C0E902215DF8044B026170476E
:1062E0000100020110B50446806816F071F994F9B6
:1062F0000600002802DB002112F082FC204610BDBF
:1063000010B5044690F90600002807DB012112F0C1
:1063100077FC94F90600002112F0B2FC01236370AF
:1063200010BD00BF38B5044680680D4616F050F920
:10633000E07B237B98420CBF0320042010FB05F078
:1063400080B2A080012116F0D5F8A06008B1658068
:1063500038BDC4F8020038BD8368002B00F03982D4
:106360002DE9F04F2DED028B994E9A4D9A4C95B038
:1063700083460AE02368D8070AD56368DBF8102053
:106380009B099B1AB3F5967F0FD2F368DB01F1D41A
:1063900010F036FDA0FB0501DBF81020830A43EA6C
:1063A00081539B1AB3F5967FEFD38C4BBBF8044017
:1063B0000FCB14AD05E90F00DDF84090D9F800359A
:1063C00023B9D9F86035002BC0F2CA80DDF84490BB
:1063D000D9F8003523B9D9F86035002BC0F2C9814E
:1063E000DDF84890D9F8003523B9D9F86035002B8D
:1063F000C0F2CF81DDF84C90D9F8003523B9D9F837
:106400006035002BC0F2D58111F050FD744B9BF923
:10641000062053F822301F2B74D9203B4FF001097E
:10642000DFF8C48109FA03F969496B4CCB689BF822
:1064300000006C4A43F08073CB602368002843F06F
:106440000103236014BF5823C323039342F00103C5
:1064500015BF12271A272926462614BF47259C2533
:106460000493CDF804B0019BB3F804B0D3F808E06E
:1064700063680293BBF1000F4BD00BF1FF3A1FFA98
:106480008AFA0AF1010AF24400221EF801CB082020
:10649000802163689B1AAB42FBD36268D8F8083549
:1064A0001CEA010F43EA0903C8F8083521D06368E4
:1064B0009B1AB342FBD3D8F80C35013843EA0903E1
:1064C0004FEA5101C8F80C35E3D1D645DDD1039B25
:1064D00003FB0BF1C90063689B1AAB42FBD36368F3
:1064E000029A9B1A8B4217D3049B4FF4964098470D
:1064F000B9E763689B1ABB42DDD263689B1ABB4253
:10650000F7D3D8E74FF0010909FA03F94FF0A04893
:106510008AE759465A46DEE7DDF804B011F0D0FCB0
:106520002B4BDB68D9010CD52B4B1A68D20708D549
:106530005B689B09CBF8103015B0BDEC028BBDE851
:10654000F08F10F05DFC234BA0FB0301830A43EAAC
:106550008153CBF8103015B0BDEC028BBDE8F08F45
:10656000D9F86435002BBFF631AFD9F86835002B68
:10657000BFF62CAFD9F86C35002BBFF627AF24013E
:10658000231D08EE103A11F0C5F8012800F07881BB
:1065900018EE100A0FF076FA8246BAF1000F3FF4B7
:1065A00033AFBBF80430002B00F07081DBF808300B
:1065B00002939BF8003001930023CDF83C9008250E
:1065C00048F2060848F2080E48F2130C994659E0C2
:1065D000F0ED00E040420F00001000E0B8FC0300C6
:1065E0007C110400D0FC03000003005013F0800F66
:1065F0000CBF7446644613F0400F2AF812400CBFDB
:1066000070466046039C059F13F0200F0CBF714637
:1066100061462AF8170013F0100F2AF81410079C8F
:106620000CBF764666462AF8146013F0080F069CE5
:106630000CBF724662462AF8142013F0040F049A25
:106640000CBF704660462AF8120013F0020F089A39
:106650000CBF714661462AF8121013F0010F099A17
:1066600014BF634673462AF81230BBF8041009F1D0
:1066700001091FFA89F205F1080391429BB240F229
:10668000A9801D46E91E89B2AA1E6B1E92B29BB25A
:106690000491E91E89B208920993AA1E6B1E9BB24F
:1066A0000C9191B26C1F281F0D910E9302991FFA45
:1066B00089F3A4B280B2EF1FAE1FBFB2B6B2CB5CFB
:1066C000079406906C1F281F019905970396EF1FEA
:1066D000AE1FA4B280B24FEAC902BFB2B6B20A94EA
:1066E0000B9092B2002981D048F20D0013F0800F78
:1066F00014BF0146414613F0400F0391014608BF05
:10670000404613F0200F14BF0C46444613F0100F00
:1067100008BF4146049103992AF812102AF817007D
:106720002AF816400A9C049E2AF8146013F0080FF9
:1067300048F20D010B9C14BF0A4642462AF8142069
:1067400013F0040F0C9A14BF084640462AF81200B2
:1067500013F0020F0D9A0F4608BF41462AF8121097
:1067600013F0010F0E9A0CBF43463B462AF8123035
:106770007BE7D9F86435002BBFF632AED9F868351F
:10678000002BBFF62DAED9F86C35002BBFF628AE26
:10679000F5E6D9F86435002BBFF62CAED9F868358C
:1067A000002BBFF627AED9F86C35002BBFF622AE12
:1067B000E5E6D9F86435002BBFF626AED9F8683582
:1067C000002BBFF621AED9F86C35002BBFF61CAEFE
:1067D000D5E670476A1C92B2DDF83C9052000AEB95
:1067E00045034FF400401880019B2AF80200002165
:1067F000C9F80415C9F80C15D3BB2823C9F8083506
:1068000018EE103A5A080023C9F81435C9F81035A3
:10681000C9F820A5C9F82425C9F82835C9F82C35A8
:106820009BF906101C4A52F82120C9F86025012264
:10683000C9F80025C9F81031C9F80820D9F8103175
:106840002BB912F01FFFD9F81031002BF9D000231B
:106850004FF0FF32C9F81031C9F80035C9F860258A
:1068600010F058FF012807D050460FF01DF957E6E9
:106870001423C9F80835C3E7504615F0A9FE4FE6C2
:1068800018EE100A15F09CFE824686E69BF8003052
:10689000019302225346A4E77C11040038B54378E3
:1068A00004460D4673B190F9060000280CDAA17178
:1068B0002846012112F0A4F928460021BDE83840FD
:1068C00012F0DEB9A17138BD002112F099F9637898
:1068D000A571002BECD138BDF0B445889DF810604F
:1068E0008D4219D9C47944B112FB04F214FB03F3AD
:1068F00014FB06F4120A1B0A260AC77B057B846870
:10690000AF420BD004EB81010024CC55057B4A55E6
:10691000427B8B54837BCE54F0BC704701EB41012A
:106920002144F4E730B4C3794D1CEDB2AB421CD026
:10693000013B13F0FF03846819D0FF2916BF290219
:106940004FF6FF7101F1FF31B1FBF3F183880022B3
:1069500053B1237801FB03F31B1204F8013B01320E
:10696000838892B29342F4D8C57130BC70471946FF
:10697000ECE700BF82888068002115F067BE00BF89
:1069800038B5002304460D46838083600C3000F048
:10699000FFFCC5F3074205232583E26723602046F9
:1069A00038BD00BFF0B49DB2012D07463DD14FEA7E
:1069B000420C49B34C1EE0B2052414FB0024A7F19D
:1069C0000A0607EB440406EB420607F118004FEAFB
:1069D000420C01E0A64217D0258B012DA4F10A0438
:1069E000F8D001EB810107EB8104604404EB8204E1
:1069F000C3F3074320F81150E367A5B107F10C007A
:106A00001146F0BC00F0CABC01EB810407EB440165
:106A100007EB840000EB82008C44C3F307430022A1
:106A2000ACF81820C367F0BC704718304FEA420C2E
:106A3000D7E700BF0C3000F0BDBC00BF0C3000F049
:106A4000D9BC00BF70B5054601F10C000C461646D6
:106A500000F004FD431E042B17D822689A421FD071
:106A600006EB860204EB420101EB430104EB8202D8
:106A700002EB8302098BD26FA1806068A26011468D
:106A800085E803002360284670BD0023A38060686A
:106A9000A360194685E8030005232360284670BDDE
:106AA00020F00200012803D000232B806B60F5E763
:106AB000A368012BF8D06068194685E80300EDE76C
:106AC00010B50446006808B112F0B2FD204610BDB2
:106AD000704700BF38B514680B6808494FF4A272BC
:106AE00002FB04F24FF47365044605FB03200844DF
:106AF0002146FFF79FFF024B1C6038BDB4660020A3
:106B00001463002030B415680B68074C4FF4A27270
:106B100002FB05F24FF4736505FB03230146E01801
:106B200030BCFFF78BBF00BFB46600202DE9F04FEB
:106B3000324A3348334B344C007851781870012373
:106B4000237000294DD0314D02234FF006084FF03D
:106B5000050C0426032069702370C6466746354637
:106B600001464FF0070A92F80290B9F1000F0CD0DD
:106B7000DFF898B021700BF80390294603463D4694
:106B8000304677466646D646C44692F80380B8F14A
:106B9000000F0AD0DFF87490217009F803802946AD
:106BA00003463D4630467746664692F804C0BCF13F
:106BB000000F08D0DFF854E021700EF803C029461A
:106BC00003463D463046567926B1104F2170FE549B
:106BD00029460346927912B10C482170C254BDE88F
:106BE000F08F4FF005084FF0040C03260220C64634
:106BF0006746354601464FF0060AB4E74063002079
:106C00008263002010630020696300205463002029
:106C1000014B1868704700BF146300202DE9F84F3E
:106C2000D0E900896FF04045A9EB0803B5EB630F8D
:106C30004BD093465A1006460F46A1EB0804002A93
:106C400041D09A421BD9254D284612F0D1FC8246EC
:106C5000BBF800302AF80430002C054418DCA9EBFE
:106C600007090234B9F1000F544426DC4C44B8F152
:106C7000000F1AD1C6E900A4B560BDE8F88F3BBB90
:106C80009A461D46002CBBF800302AF80430E6DD99
:106C9000224641465046A9EB070915F0BDFC0234D7
:106CA000B9F1000F544408DC4C44404612F0C0FCDB
:106CB000C6E900A4B560BDE8F88F39464A462046CB
:106CC00015F09CFCD2E70225BEE7054802F0B6F8B5
:106CD000AB4228BF2B465D00B6E700BFFEFFFF7F3B
:106CE000D8FC03000B1A30B4DD10002D3ADD1388F8
:106CF00000EBC5050BE044889C420DD084889C4283
:106D00000DD0C4889C420DD00830A8420DD0048814
:106D10009C42F0D130BC7047023030BC7047043028
:106D200030BC7047063030BC70470B1A5B10022B2A
:106D300012D0032B0AD0012B02D0084630BC70477A
:106D4000138802889A42E5D00846F7E7138802883C
:106D50009A42DFD0023000E0138802889A42D9D0EC
:106D60000230EEE75B10E2E72DE9F04F784DD5E910
:106D700000329A4218BF6B60764B1E8887B04EB1C6
:106D80007208761006D0002601365310F6B29AB279
:106D9000002BF9D1704FDFF8CC91DFF8C0A107F5D7
:106DA000735B4FF00008A7F5736403E004F5A27469
:106DB000A74220D03246214604A8FFF743FEBDF883
:106DC0001020059BADF80E20002AEFD0D5E9011068
:106DD000814279D021F8022B6960012B5BD0022B14
:106DE0007AD09DF80E3004F5A274DF2B98BF4FF0D7
:106DF0000108A742DED107F57367BB45D3D1D9E9B6
:106E000000431B1B002B4FEA630616DD504F07E0C3
:106E1000228823F8022B013E6B6004F102040CD09F
:106E2000D5E9011291420B46F2D122463846FFF7CE
:106E3000F5FE013E04F10204F2D1B8F1000F27D0B3
:106E4000464FD7E900431A1B002A4FEA620619DDB4
:106E5000DFF8FC8007E0228823F8022B013E6B60FC
:106E600004F102040CD0D5E9011291420B46F2D193
:106E700022464046FFF7D2FE013E04F10204F2D161
:106E8000D7E900439C42364B18BF7C6000221A8031
:106E900007B0BDE8F08FD9E900010DF10E024FF007
:106EA0000003FFF71FFFD9F804209042014638D0B5
:106EB00002318A4204D0521A15F0AEFBD9F8041000
:106EC0000239C9F8041071E7214801930DF10E024F
:106ED000FFF7A4FE019B80E7DAE900010DF10E0245
:106EE0004FF00003FFF7FEFEDAF8041081427FF452
:106EF0005DAFDAF80830994224D0BDF80E3021F8A1
:106F0000023BCAF804109DF80E30EF2B7FF64EAF0F
:106F10001348F03B0188012202FA03F30B4303807C
:106F200044E7D9F80830984206D0BDF80E3021F871
:106F3000023BC9F8041039E70A480DF10E02FFF7C9
:106F40006DFE33E70DF10E025046FFF767FEDAE7FC
:106F50000463002078630020E47500205C63002057
:106F60003C630020486300202DE9F04FA74EA84F56
:106F7000DFF8D482DFF8D492A64CDFF8D4A2D6E9A9
:106F8000002300203060B08083B07B603A60012332
:106F9000B07188F8000089F80030FFF7C7FD9E4AFD
:106FA0009E49B4F800B012880D889D494BEA020250
:106FB0002A430A80FFF7D8FEDAE9005100208D420B
:106FC000208000F0848101239C462A4632F8023B4F
:106FD000DBB2A3F1F00EEF2B0CFA0EFE03D94EEA52
:106FE000000080B220809142F0D18E4B8E4AB3F8DF
:106FF00000C0BBEB000B18BF4FF0010B82F800B0D4
:10700000BCF1000F40F042815FFA80FB874B98F89B
:10701000002093F800A099F800E001930DE00EF134
:10702000010006F80E3022435FFA80FEBEF1070F22
:1070300008BF4FF0010EA94262D035F8020BC3B26F
:10704000A3F1040C5FFA8CFCBCF1A00F4FEA1024F2
:10705000E5D9A53B422B00F25381DFE813F0C300D2
:107060004300B500B200AF00AC0043005101510134
:107070005101510151015101510151015101510180
:107080005101510151015101510151015101510170
:107090005101510151015101510151015101510160
:1070A0005101510151015101510151015101510150
:1070B0005101510151015101510151015101510140
:1070C0005101510151015101510151015101510130
:1070D000510151010F010A0105010001FB00D1001E
:1070E000CC00BE00BAF1000FA0D1BEF1070F504B8B
:1070F00008BF4FF0010EA94218804FF0010A9CD141
:10710000019B89F800E088F8002083F800A0327025
:1071100086F807B07B78B87896F801C096F802E058
:10712000F978F578347997F8048097F806907045E7
:1071300008BF634514BF012300237879A94218BF13
:1071400043F001037179B679A04518BF43F00103FC
:1071500088420CBF184643F001003B78FF79B145E7
:1071600018BF40F00100934218BF40F001005F4596
:1071700018BF40F001002F4B002800F0838001274A
:107180001F70BAF1000F7ED04CEA0E032B4323434D
:107190000B433343134313F0FF0340F0B380019AD2
:1071A00025481370224C2549254A038023805046E8
:1071B0000B80138067E0234B188037E7204B188043
:1071C00034E71E4B188031E7BAF1000F7FF42EAF81
:1071D0001A4B4FF0010A188028E7224362F07F0221
:1071E000D2B223E7BAF1000F7FF420AF124B4FF079
:1071F000010A18801AE7224342F04002D2B215E792
:10720000224342F02002D2B210E700BF54630020B4
:107210006C63002012630020246300203C63002084
:10722000786300207A6300202863002076630020C2
:1072300074630020686300207C630020806300206A
:107240007E63002026630020106300206963002015
:1072500004630020224342F01002D2B2E6E6224349
:1072600042F00802D2B2E1E6224342F00402D2B276
:10727000DCE6224342F00202D2B2D7E6224342F0D9
:107280000102D3E6187003B0BDE8F08FDAF80820E9
:1072900091422CD021F802CBCAF804100022A94256
:1072A00094F800B01A807FF4B1AE174B98F8002024
:1072B00093F800A00193327086F807B0BAF1000F7E
:1072C0003FF428AF4FF0000A83F800A022E70F4BED
:1072D0000F4AB3F800C0BBF1000B18BF4FF0010B11
:1072E00082F800B0BCF1000FD0D1E346DDE7074AD9
:1072F00008480193FFF792FCDAE90051019BCDE7C2
:10730000224393E65046BEE7766300207A6300206E
:1073100028630020046300201648174A1749D0B597
:107320000024C0E90044846015F0C0F81448124AF3
:107330001249846000260027C0E9006715F0B6F8FE
:1073400010480D4A0D498460C0E9004415F0AEF8BC
:107350000D48094A09498460C0E9006715F0A6F89C
:107360000A48054A8460C0E900440449BDE8D040A9
:1073700015F09CB80463002000600020C16A020080
:107380001863002048630020306300205C63002005
:107390000022C0E901220280827070474B1E012B3F
:1073A00005D9033901299CBF01238370704701234C
:1073B000437070474368012B11D033F0020306D1AC
:1073C00003782BB901231A46C0E9012103707047E5
:1073D0008278002A16BF002301220522F4E7836881
:1073E000CB1AC82BF3D94378002BF0D00323C0E984
:1073F00001317047D0E90123012A10B4A1EB030346
:1074000019D0C82B03D8F2B95DF8044B7047037844
:107410004BB183783BB104220023C0E901215DF820
:10742000044B03707047002AEED00023C0E90131FD
:107430005DF8044B7047447854B9C82B03D90378DE
:10744000002BF2D0E5E7142BEFD85DF8044B704722
:107450000223C0E901315DF8044B70474068704772
:10746000014B1870704700BF04600020054A138864
:10747000C3F580618B42BABF08339BB24FF480637F
:107480001380704708600020044A1388082B86BFC9
:10749000083B9BB208231380704700BF08600020A0
:1074A000084B09481A88018847F6FF7310B4A3EB0C
:1074B0008204A14202DA92008B189BB25DF8044B61
:1074C000038070470860002006600020064B074AD2
:1074D000198813888800B3EB810FC6BF1B1A9BB2B3
:1074E00000231380704700BF086000200660002062
:1074F000024B47F6FF721A80704700BF06600020FB
:10750000044A13780133DBB2032B88BF00231370C6
:10751000704700BF0460002040F63D23984238D9F0
:1075200041F27B4398422BD941F6B86398423CD94B
:1075300042F6F503984231D943F23333984239D9B0
:10754000B0F5804F49D344F6CC43984251D945F623
:107550009913984239D946F2666398424ED947F258
:107560005C53984254D8314BC0EBC000C0EBC00014
:10757000A3FB002347F6A07000EBD30080B2704756
:107580002B4B00EB4000A3FB003000096B3880B2AE
:107590007047284BA3FB00304008704700EB4000C9
:1075A000C010A0F2366080B270478008A0F26F2051
:1075B00080B270471A231D4A03FB00F0A2FB003083
:1075C0000009A0F6424080B2704700EB80008010B6
:1075D000A0F57350383880B27047144B00EBC000F0
:1075E0004000A3FB0030C008A0F5B2500C3880B2B8
:1075F0007047A0F51A50083880B270470C4BC00095
:10760000A3FB00308008A0F5B540163880B2704763
:10761000C0EB0012054BC0EB8200A3FB002345F238
:10762000B00000EBD30080B2704700BF1F85EB5164
:10763000CDCCCCCC398EE33838B52D4A1378032B1A
:1076400052D8DFE803F00A0F1C022A4B1888FFF714
:1076500063FFBDE8384003F0E9BFBDE838400020D3
:1076600003F0E4BFB0F57A7F1AD2234A214B108889
:107670001880FFF751FFBDE8384003F0D7BF1F4B1C
:107680001878F0B11C481E4A1A4900881288B1F9CE
:107690000040851AAC421FDA101980B20880D6E784
:1076A000144B174AB3F9000012889042C6BF801AE3
:1076B00080B200201880FFF72FFFBDE8384003F0AC
:1076C000B5BF0C490E4CB1F900202488A24207DD59
:1076D000101B80B20880BAE7002208801A70B6E753
:1076E000012208801A70B2E70023137038BD00BF72
:1076F000046000200A600020066000200560002071
:107700000860002008B50648FEF7FAFD0448192174
:10771000FFF7C4F8BDE8084001483021FEF702BE7B
:1077200014640020014B1860704700BF10600020F7
:107730002DE9F04782B005460EF07EF9B5F57A7F67
:10774000044656D2DFF83C82FF2388F80030884890
:10775000FFF710F9874B1D6842F2A6039D4200F027
:1077600098802CD943F6A6239D4255D017D9804E38
:10777000002400250023A1B200951A4630460134AA
:10778000FFF7AAF8302CF5D198F800107848FFF7E9
:10779000C9F8774802B0BDE8F047FEF7DDBD42F218
:1077A000A6439D42F0D019D942F2A6639D42EBD088
:1077B00025F4007542F2A6539D42E5D0D7E7002D8F
:1077C000D5D16B4C2E460023A9B200961A4620460E
:1077D0000135FFF781F8302DF5D1D5E742F2A62328
:1077E0009D42D1D025F4007542F2A6139D42CBD024
:1077F000BDE7B5F5206F05D3DFF88881002388F851
:107800000030A4E75C4BDFF87C81A3FB05356FEA11
:10781000D50588F800509AE7DFF86C91574E99F833
:107820000030DFF84CA1032B88BF01234FF0000488
:1078300088BF89F80030354627461AE0022B2F70A2
:107840001FD198F800306B7004EB440333440020E0
:1078500062009F702244B31800905B78B25C0134E0
:107860005046FFF739F8302C99F8003005F1030540
:107870007AD0012BA1B2E1D198F800306F702B7053
:10788000E2E7032B6F70DFD198F80000A870620068
:10789000E0E73A4DDFF8F490394FDFF8D4A0C4F3B5
:1078A0000714002640F2671303FB04F3C3F30F230E
:1078B000A9FB03214909C1EB0112A3EB82039BB28F
:1078C000C3EB0323A9FB03235B0983F0FF02C2EB95
:1078D0000222C3EB032387FB020C87FB03E018445F
:1078E0000CEB020E4FEAE27CDA17A2EBE01298F8FA
:1078F0000030ACEBEE1C0CF1FF0CFF3203FB0CFC78
:1079000003FB02F2481EA7FB0C1CA7FB0212CCF3E0
:10791000C71CC2F3C712B1B2042818D8DFE800F0C0
:10792000190503201C009C4613460022CDF800C018
:1079300050462A706B7085F802C00136FEF7CCFF06
:10794000083C302E05F10305E4B2ABD11CE71A4622
:1079500063464FF0000CE9E794461A460023E5E73A
:1079600062469C460023E1E7013389F800300BE7CB
:107970001464002010600020CDCCCCCC84630020A7
:10798000818080800C600020836300208988888843
:1079900070B50B4882B00646FEF7ECFF0024254682
:1079A0000023A1B200951A4630460134FEF794FF39
:1079B000302CF5D1024802B0BDE87040FEF7CCBCD7
:1079C0001464002010B5054C2046FEF77BFC2046D1
:1079D000034A0449BDE8104014F068BD1464002057
:1079E00000600020E5620200032009B111F0AAB98D
:1079F00011F0BEB90A4BB3F8442082420DD0B3F85F
:107A00006820824206D0B3F88C20824208BF83F8F7
:107A10008E10704783F86A10704783F846107047DD
:107A20001866002010B5134C0621204603F05EFFB7
:107A3000204603F043FF204640F2C13103F06AFFC5
:107A40000D49204603F0FCFE204603F009FF2046C6
:107A5000012103F091FF2046F422202103F088FF4A
:107A600020461E2103F082FF20460021BDE8104081
:107A700003F0E2BF00A600206864002030B5094989
:107A8000D0F801304579847902780988064883B0B6
:107A900000936B468DF804508DF8054006F0E6F92A
:107AA00003B030BD0C6500206864002040F6A94397
:107AB000984200F0C08017D840F6A903984200F021
:107AC000928031D940F6A923984210B500F09480F5
:107AD00040F6A933984218D15B4B5C481988BDE841
:107AE0001040042206F0EEB941F2A913984270D07A
:107AF00035D941F2A933984271D041F2A943984255
:107B000025D1534B10221A70704740F6A9139842A2
:107B100056D14D4B4D481988012206F0D3F9BDE8E6
:107B2000104014200DF094BF40F2A963984274D025
:107B300025D940F2A973984243D1454A424B127865
:107B400019884248524252B2002306F0EFB941F27E
:107B5000A923984277D13E4B01221A70704740F614
:107B6000A973984253D01CD941F2A903984229D154
:107B7000354B364819884FF0FF3206F013BA40F201
:107B8000A943984252D040F2A953984259D1304B60
:107B90002D4A1B7811882D485B425BB2002206F00B
:107BA000C5B940F6A95398420DD040F6A963984252
:107BB00048D1254B254819884FF0FF3206F0D4B93B
:107BC00010BD70477047204B20481988102206F0DE
:107BD00079B91D4B1D481988012206F0E3B91C4BE9
:107BE00008221A707047184B194A198892F9002018
:107BF0001648002306F09AB9134B1448198802223C
:107C000006F060F9BDE8104014200DF021BF0E4BC6
:107C10000E481988012206F0A7B90B4A0C4B1188AF
:107C200093F900300948002206F080B9064B074856
:107C3000198806F063B9044B04481988082206F035
:107C400041B97047704770470C6500206864002098
:107C50001460002008B541F2A873984200F0148126
:107C60004AD840F6A763984200F00C8130D941F21F
:107C7000A733984200F0FF801DD941F2A7539842E4
:107C800000F0E58041F2A763984208BFE52205D0E5
:107C900041F2A74290420CBFE32200227B4B7C487A
:107CA000198806F001F90C200DF0D2FEBDE808405D
:107CB000774806F093B941F2A713984200F0CE80BE
:107CC0003AD941F2A72290420CBFE0220022E5E718
:107CD00040F6A703984200F0D08040F2828040F640
:107CE000A733984200F0BC8070D940F6A74290427A
:107CF0000CBFC8220022D1E742F2A703984200F04D
:107D0000BE8032D942F2A753984200F0B1801ED90A
:107D100042F2A773984200F0978043F6A723984257
:107D200008BF4FF40E72B9D042F2A76340F2272287
:107D3000984218BF0022B1E740F6A773984275D069
:107D400041F2A70290420CBFB6220022A6E742F2FF
:107D5000A733984200F086801FD942F2A74340F231
:107D60002522984218BF002298E741F6A84398427E
:107D70007BD01ED941F6A763984262D041F6A77323
:107D8000984208BF4FF4C97288D041F6A75340F219
:107D90008312984218BF002280E742F2A71398424C
:107DA0004CD042F2A72340F22322984218BF00226F
:107DB00074E741F6A82398424DD020D941F6A83265
:107DC00090420CBF4FF4AA72002267E740F6A71357
:107DD000984231D040F6A72290420CBFC622002222
:107DE0005CE740F2A763984233D0B0F5D56F12D369
:107DF00040F2A77290420CBF6F2200224EE741F67C
:107E0000A803984216D041F6A81290420CBF4FF436
:107E1000A972002242E740F2A743984208D040F2FC
:107E2000A75290420CBF3122002237E7B52235E736
:107E3000302233E7EA2231E70C222FE740F22122F9
:107E40002CE74FF4C57229E740F22A2226E7E42204
:107E500024E7322222E740F253121FE7B7221DE740
:107E6000C7221BE74FF4097218E740F2551215E7D5
:107E700040F2262212E7E22210E770220EE74FF4CA
:107E8000CA720BE7CD2209E7E92207E70C6500205B
:107E90006864002010B5074C074805F001FF204634
:107EA00005F0BAFF2046054A0549BDE8104014F028
:107EB000FDBA00BF68640020286400200060002034
:107EC000957F0200F8B52A4C2A4F2B4D2B4E2046A9
:107ED000032105F0A3FB00222046012105F0CEFB83
:107EE0002046012105F0D2FD2046082105F080FD45
:107EF0002046394605F054FD2046042105F08AFB52
:107F00002046012105F082FB204640F2C13105F0F8
:107F1000E7FD20461A4905F01DFE04F52C700C22E1
:107F2000062104F05BFF28461649174C102205F085
:107F3000F1FE0B223946284605F0E8FE284605F0FA
:107F4000EDFE304605F08EFE6421304605F07EFEE3
:107F500003F008FA0D4B002220465A601A709A600E
:107F600006F04CF820460A49BDE8F84005F066BF27
:107F700000A40020F4FC03002864002088A3002053
:107F8000F579020000FD0300686400201065002000
:107F9000E979020010B5044B044640F84C3B03F06D
:107FA0007FFE204610BD00BFB80C040010B504468B
:107FB000006808B111F03CFB204610BD2DE9F047E8
:107FC0006548664E664C8CB011F006FC654811F0B1
:107FD00003FC0FCE6D460FC50FCE0FC596E80F0000
:107FE00007C561492B70204610F03CFF5F49604E89
:107FF000204610F037FF204610F014FF5D49204660
:1080000010F030FF0DF1FF3A00275BE05A4920469F
:1080100010F0DAFE0A222946204610F0F1FF314620
:10802000204610F0D1FE284610F048FE0A22C1B2C8
:10803000204610F0E5FF3146204610F0C5FE022133
:10804000284610F0DDFD284610F038FE5FFA80F873
:108050000A224146204610F0D3FF3146204610F058
:10806000B3FE0321284610F0CBFD284610F026FE73
:108070005FFA80F949460A22204610F0C1FF3146D6
:10808000204610F0A1FEB8F1000F40D0B9F1010F69
:108090000CBF3A493A49204610F096FE012D3CD9D2
:1080A000092D4BD00A2D44D0202D3BD135492046F7
:1080B00010F08AFE013731462046FFB210F0D2FEA2
:1080C0002D2F40D01AF8015F0021284610F098FDAE
:1080D0000A223946204610F093FF3146204610F020
:1080E00073FE29460A22204610F08AFF31462046B8
:1080F00010F06AFE1F2D89D92349204610F064FE36
:108100000A22A5F12001204610F0B4FF87E71F499D
:10811000204610F059FE012DC2D81D49204610F00E
:1081200053FEC7E7122DC5D11A49204610F04CFE68
:10813000C0E71949204610F047FEBBE71749204623
:1081400010F042FEB6E7044811F012FB05480CB0EF
:10815000BDE8F04711F00CBBAC6600203CFE03000C
:10816000C8BC0020FC65002098FD0300A4FD0300AE
:108170002CFE0300C8FD0300F0FD030000FE030019
:1081800008FE030024FE0300F4FD0300F8FD0300D5
:108190000CFE030030FE03001CFE030014FE03006F
:1081A0002DE9F84FD0E900960546A6EB09036FF0DC
:1081B0000040834251D08A469346002B48D0B3EB0F
:1081C000430F4FEA430831D98046AAEB09044046E1
:1081D00011F00EFA074680449BF800303B55002C06
:1081E0000FDCA6EB0A060134002E3C4426DC3444A6
:1081F000B9F1000F11D1C5E90074C5F80880BDE8D8
:10820000F88F224649463846A6EB0A0614F004FACF
:108210000134002E3C4411DC3444484611F008FA85
:10822000C5E90074C5F80880BDE8F88FB8F1000F03
:10823000CADBA1EB0904CAD14746CDE72046514627
:10824000324614F0DBF93444B9F1000FD3D0E4E73F
:10825000A1EB09044FF00108B9E7014800F0EEFD79
:10826000D8FC03000B1A30B49D10002D15DD1378D7
:1082700000EB85050BE044789C4229D084789C4231
:1082800029D0C4789C4229D00430A84204D0047874
:108290009C42F0D130BC70470B1A022B12D0032B3A
:1082A00004D0012B08D0084630BC70471378027800
:1082B0009A42EFD0013006E0137802789A42E9D072
:1082C0000846F1E7137802789A42E3D00130F4E7E8
:1082D000013030BC7047023030BC7047033030BCD6
:1082E000704700BF38B5384C054601E010F076FF06
:1082F000204610F055FF00282046F7DC334932486D
:1083000010F0B0FD002D49D031492F4810F0AAFDE2
:108310002E492D4810F0A6FD2E492B4810F0A2FD45
:108320002D49294810F09EFD2849274810F09AFD54
:108330002A49254810F096FD2949234810F092FD5E
:108340002849214810F08EFD27491F4810F08AFD6A
:1083500026491D4810F086FD25491B4810F082FD76
:108360001A49194810F07EFD2249174810F07AFD8D
:108370002149154810F076FD1449134810F072FD9C
:108380001E49114810F06EFD1D490F4810F06AFD9E
:10839000BDE838400D490C4810F064BD19490A4841
:1083A00010F060FD0949084810F05CFD09490648D5
:1083B00010F058FD1449044810F054FD13490248C8
:1083C00010F050FDACE700BFC8BC002014FD030056
:1083D0006CFE03009CFE03007CFF0300B0FF030063
:1083E000D0FF0300ECFF030008000400300004008D
:1083F0004C0004006800040094000400D000040055
:10840000F8000400C8FE0300F4FE030038FF030078
:108410002DE9F04FDFF854A3DFF85493A3B0CB4C11
:10842000204610F0BDFE0346002B204640F3B884E2
:1084300010F0D4FEC0B220385528F1D801A353F86B
:1084400020F000BF83890200218402002184020001
:108450002184020021840200218402002184020080
:108460002184020021840200218402002184020070
:108470002184020021840200218402002184020060
:108480002184020021840200218402002184020050
:108490002184020021840200218402002184020040
:1084A0002184020021840200218402002184020030
:1084B0002184020021840200218402002184020020
:1084C0002184020021840200218402002184020010
:1084D0002184020021840200218402002184020000
:1084E00021840200218402002184020021840200F0
:1084F00021840200218402002184020021840200E0
:1085000021840200218402002184020021840200CF
:1085100021840200218402002184020021840200BF
:1085200021840200218402002184020021840200AF
:10853000218402002184020021840200218402009F
:10854000218402002184020021840200318902007A
:10855000218402002B890200CB89020021840200C1
:10856000C5890200D3890200298802002184020003
:10857000D986020021840200C985020021840200FC
:1085800021840200A385020021840200D58D02000F
:1085900021840200218402009D85020010F016FA59
:1085A0003DE76B4B6B4A1B781578012B00F0E88395
:1085B000022B00F0D683002B00F0BE8315AC2146C1
:1085C000624810F04FFC2AE76348644D644E11F096
:1085D00003F9644811F000F90020FFF783FE0FCD86
:1085E00009AC05940FC40FCD0FC495E80F0007C464
:1085F0003268237012F0010200F090835A48036839
:1086000013F0010300F07C83DFF84081404610F056
:10861000C7FD002840F02E830DF12303059D06932E
:10862000044614E0DAE900014FF000033246FFF798
:1086300019FEDAF80410814200F02D8314ABB34226
:1086400006D101350DF15103AB4200F0D882069EF0
:1086500095F800B016F8017F5846012110F0D0FAC5
:108660003846032110F0CCFA5846002110F008FBE0
:10867000384610F023FB012103465846079310F0BB
:10868000FFFA384610F01AFB00210246584693467E
:1086900010F0B6FA3846002110F0B2FA079B13F03A
:1086A000FF0FCBD11BF0FF0FC8D0D9E900012A463C
:1086B000FFF7D8FDD9F804108142B3D1D9F80830BA
:1086C000994200F0E2822B780B70D9F80430013324
:1086D000C9F804300124A5E71F48204D204E11F0B1
:1086E0007BF8204811F078F80120FFF7FBFD0FCD53
:1086F00009AC05940FC40FCD0FC495E80F0007C453
:108700003268237012F0010200F0EC821648036810
:1087100013F0010300F0D882DFF83080404610F0FB
:108720003FFD002840F0C781D9E90032934218BFCD
:10873000C9F80430DAE90032934218BFCAF80430AD
:108740000DF12303059C0693002628E0C8BC0020F9
:1087500084A3002078A30020AC6600203CFE030028
:1087600020650020FC6500201C6500202865002095
:1087700038650020DAE900014FF000032A46FFF7D0
:1087800071FDDAF80410814200F02C8214ABAB4288
:1087900006D101340DF15103A34200F05181069D31
:1087A00094F800B015F8017F5846012110F028FA1E
:1087B0003846032110F024FA5846002110F060FAE0
:1087C000384610F07BFA012103465846079310F013
:1087D00057FA384610F072FA00210246584693467E
:1087E00010F00EFA3846002110F00AFA079B13F039
:1087F000FF0FCBD11BF0FF0FC8D0D9E900012246F3
:10880000FFF730FDD9F804108142B3D1D9F8083010
:10881000994200F00F8123780B70D9F804300133AE
:10882000C9F804300126A5E7BB49BC48BC4D10F08F
:1088300019FBBC49B94810F015FBBB49B74810F00B
:10884000C3FABA4BB5481968102210F0CDFBB84BEB
:10885000B24819684FF08054102210F0D9FBD4F8B8
:108860000021B449D4F80431AC4810F04BFBD4F8E3
:108870001021B149D4F80C31A84810F043FBAF499E
:10888000A64810F0EFFAAE49A44810F0EBFAAD4953
:10889000A24815AC10F0E6FAA249A04810F0E2FA9E
:1088A000A94BAA490022204614F07CFE21469B4891
:1088B00010F0D8FA6FF05902A549204614F072FE64
:1088C0002146964810F0CEFAA249944810F0CAFA10
:1088D00095F96A20A04905F14703204614F062FE8D
:1088E00021468E4810F0BEFA95F946209B4905F1C5
:1088F0002403204614F056FE2146884810F0B2FAB0
:1089000095F98E20964905F16B03204614F04AFE36
:108910002146824810F0A6FA8249804810F0A2FA57
:1089200011F07AF810F096FF79E510F057F876E537
:108930008C497A4810F096FA8B49784810F092FAF0
:10894000764810F06FFA8949744810F08BFA0120CC
:1089500005F02AFF022005F027FF854805F04AF9B7
:10896000844803F077F96D4810F05CFA82496B484F
:1089700010F078FA012005F017FF022005F014FF2F
:108980004DE57E49654810F06DFA7D49634810F069
:1089900069FA7C49614810F065FA7B495F4810F03C
:1089A00061FA7A495D4810F05DFA79495B4810F048
:1089B00059FA5C49594810F055FA7649574810F071
:1089C00051FA2CE5FFF7FAFA29E5734806F03AF96F
:1089D00025E55449514810F045FA70494F4810F0C8
:1089E00041FA6F494D4810F03DFA6E494B4810F07E
:1089F00039FA6D49494810F035FA6C49474810F08A
:108A000031FA6B49454810F02DFA6A49434810F095
:108A100029FA6949414810F025FA68493F4810F0A1
:108A200021FA67493D4810F01DFA3E493B4810F0D5
:108A300019FAF4E422464846FFF7B2FB012699E60C
:108A4000002E3FF46BAE5F49404610F0BDF9D9E906
:108A50000045AC420CD05C4E14F8011B0A22404683
:108A600010F0CEFA3146404610F0AEF9A542F3D1EF
:108A70005649404610F0F6F95549404610F0A4F921
:108A8000DAE90045AC420CD04F4E14F8011B0A2223
:108A9000404610F0B5FA3146404610F095F9A5422F
:108AA000F3D14A49404610F0DDF9404610F078FB1A
:108AB00000283FF439AE194C01E010F08FFB20463E
:108AC00010F06EFB00282046F7DCD9E90032934213
:108AD00018BFC9F80430DAE900323E490F48934222
:108AE00018BFCAF8043010F0BDF93B490B4810F02C
:108AF000B9F93849094810F0B5F90A49074810F0A2
:108B0000B1F92449054810F0ADF9344810F030FEB1
:108B1000334810F02DFE82E484010400C8BC00201C
:108B20001866002004FE03009C0104006000001091
:108B300064000010AC010400C8010400F40104004A
:108B40001402040034020400000020405802040013
:108B50006C0204008002040094020400A4020400D9
:108B6000B402040050010400A4FD03005C010400F1
:108B700000A40020C0A6002070010400C40204006C
:108B8000080304004C03040090030400D403040011
:108B90001804040058FD03006CA700205C040400C6
:108BA00098040400D80404001405040050050400CF
:108BB00084050400A0050400BC050400D0050400E1
:108BC000EC050400380104004C01040040010400DD
:108BD0004401040014FD030090FD0300AC66002076
:108BE000FC650020DAF80830994261D02B780B70D0
:108BF000DAF804300133CAF804300126C6E5002C47
:108C00003FF404AD7A49404610F0DEF8D9E900455A
:108C1000AC420CD0774E14F8011B0A22404610F0EB
:108C2000EFF93146404610F0CFF8A542F3D1724932
:108C3000404610F017F97149404610F0C5F8DAE9DE
:108C40000045AC420CD06B4E14F8011B0A22404682
:108C500010F0D6F93146404610F0B6F8A542F3D1EF
:108C60006549404610F0FEF8404610F099FA002899
:108C70003FF4D2AC624C01E010F0B0FA204610F0A4
:108C80008FFA00282046F7DC1FE72A464846FFF700
:108C900087FA0124C6E4DAF8083099420ED0337816
:108CA0000B70DAF804300133CAF804300124C5E44B
:108CB0002A465046FFF774FA012667E532465046C9
:108CC000FFF76EFA0124B9E4CAF808300123002442
:108CD000002503604B4A4C495046CAE9004513F051
:108CE000E5FB19E500200021C9E90001C9F80820C9
:108CF0000123444A44493360484613F0D7FB05E555
:108D0000CAF8083001230024002503603D4A3E498B
:108D10005046CAE9004513F0C9FB75E40020002164
:108D2000C9E90001C9F808200123364A36493360F1
:108D3000484613F0BBFB61E4344B186813F028FB82
:108D40000B46334902460868CDE9022313F020FBA5
:108D500015ACCDE900012F4A2046322114F0EEFB7C
:108D60002DE42A4B632D18681DD913F011FB15ACA7
:108D700002460B4600952849204614F013FC1EE4D9
:108D8000224B0295632D186818D913F001FB15AC1E
:108D9000CDE90001214A2046322114F0CFFB0EE438
:108DA00023B0BDE8F08F13F0F3FA15AC02460B4682
:108DB00000951B49204614F0F5FB00E413F0E8FA97
:108DC00015ACCDE90001174A2046322114F0B6FB5C
:108DD000FFF7F5BBBFF34F8F1349144BCA6802F47A
:108DE000E0621343CB60BFF34F8F00BFFDE700BFCE
:108DF000380104004C010400400104004401040057
:108E0000C8BC002000600020AD7F020074A30020D9
:108E100080A3002010060400600604003006040051
:108E2000780604004806040000ED00E00400FA059E
:108E300032DF704741DF704702F0AEBA30B5384CD0
:108E4000384D394B63604FF0013247F230510C20FE
:108E500083B000232260C4E90201EB720CF0ECFD48
:108E60000346C5E9003331484FF4E13110F08AFA86
:108E700002F070FBA378002B41D12379002B44D161
:108E8000E179A079012502F0F7FB0095284AA16855
:108E90002848002310F058FC00950023264AE1687A
:108EA000264810F051FCFFF70DF82378002B33D142
:108EB000637873BB224C02F08BF804F10C0514F8B4
:108EC000010B00210FF09CFEAC42F8D11D4C251D7A
:108ED00014F8010B02210FF093FEAC42F8D1FEF71B
:108EE000A1FD144810F044FC144810F041FC164B4E
:108EF000D3E900218A4218BF5A6003B030BDE07840
:108F000002F0A4FB2379002BBAD0607902F0B2FB07
:108F1000B6E7FEF7F7FBCDE7002002F057FBC7E707
:108F2000046600201866002000010101C8BC002072
:108F300011AF0200AC660020398E0200FC650020F3
:108F40001860002024600020446500202DE9F04FC7
:108F5000514BDFF8608185B01E4601930CF06CFD2B
:108F6000B246C8F8000016F8010B02210FF048FEC7
:108F70004A4BB342F7D14A4ADFF83C91002342F012
:108F8000010202931F460092464E0121F05C0FF051
:108F900037FE029B0021F05C434E0FF071FE009BF8
:108FA00040209847414B029A41491B78D1F810154F
:108FB0004FF0A04002EB8202D0F810050397134453
:108FC00006EBC30CC04346F83300C943CCF8041089
:108FD00006EBC20356F832101869D3E901260E4396
:108FE000D9680A43D3E9051C06430A43D3E90701BC
:108FF0005B6A46EA0C06024342EA030B0E43002377
:1090000008E0D8F80000FDF765FD039B01330B2B4A
:10901000039321DC1AF8033059F82330C3F12002FE
:109020000BFA02F226FA03F0203B10432BFA03F36B
:10903000184300F001043D4654EA050303AA02A9BF
:10904000DFD1D8F8000003AA02A9FDF75BFD039B5E
:1090500001330B2B0393DDDD029B124A0021D05C10
:109060000FF0CEFD029B0133032B02938CDD019C9C
:1090700014F8010B00210FF0C3FD084BA342F7D1F8
:109080000A4A13780133DBB2042B84BF074A00235A
:10909000137005B0BDE8F08F186000202460002038
:1090A00080080400246000205865002050650020DE
:1090B00000030050186600207C1104002DE9F04FD9
:1090C0008146DFF8388119F8013BD8F800A083B059
:1090D000BBB3DFF82CB1554616E0234634F8022C1A
:1090E00023F8022BA21EAA42C8F804302CD0521B2F
:1090F000A01A294613F090FAD8F800A057442E8001
:109100003D4619F8013BE3B11BF81310D8E90142C1
:109110000BEB430300295B7814BF4FF40076002665
:10912000944246EA0306A5EB0A070FD0AC42D4D11D
:109130002B4623F8026BC8F8043019F8013B002BCA
:10914000E2D103B0BDE8F08F2F46D8E7A4EB0A03C5
:109150005A10012A134638BF01239B184AD2002B0C
:1091600039D10093002FDE5303EB070610DC641B9C
:109170000237002C1F4416DC3C44BAF1000F1DD10D
:10918000009AC8F80820C8E9003435469A46B8E77E
:109190003A461846514613F03FFA641B0237002C3A
:1091A0000346074410DD22462946384601933C44D5
:1091B00013F024FA019BBAF1000FE1D0504601935D
:1091C00010F036FA019BDBE7504601933C4410F067
:1091D0002FFA019BD4E76FF04042934228BF134619
:1091E0005A001046009210F003FA009A82180346C3
:1091F0000092B7E7004AF4E7FEFFFF7F44650020D6
:10920000C40C0400204B1A8842F6AA139A4200D0DC
:10921000704730B41D4A1378202B14D8202B1FD848
:10922000DFE803F02A15201E151E1E1E151E1E1E29
:109230001E1E1E1E151E1E1E1E1E1E1E1E1E1E1E57
:109240001E1E1E1E1500402B01D0802B08D1104B76
:1092500010491C783525012000231555087013701E
:1092600030BC70470A4B0B491C783525012002237E
:10927000155508701370F3E70549064B0878292443
:10928000012114541970EBE7266300205463002079
:10929000696300206863002008B5FFF7B9F8BDE8EE
:1092A00008404FF47A700CF0D3BB00BF08B5012022
:1092B000FFF7BEFDBDE80840FFF7BCBD2DE9F04F4C
:1092C000D0E9009683689E4283B004460D46A1EB28
:1092D000090821D08E42334615D036F8020CB2F878
:1092E000009023F8020BB71EB942636005D07A1ACA
:1092F000B01A13F091F9276847443846A5F8009052
:1093000003B0BDE8F08F128823F8022B3746436084
:10931000384603B0BDE8F08FA6EB090359100129C8
:109320000B4638BF01235B1841D28BBB9A469B4644
:1093300013882BF80830B8F1000F0BEB080711DC8D
:10934000761B08F10208002ED8441BDC4644B9F114
:10935000000F13D13846C4E900B6C4F808A003B022
:10936000BDE8F08F424649465846761B13F054F943
:1093700008F10208002ED84404DC4644484610F0A8
:1093800057F9E7E729463246404613F037F9DDE75B
:109390006FF04047BB4228BF3B465F003846019212
:1093A00010F026F9019A834600EB070AC0E7014F47
:1093B000F4E700BFFEFFFF7F70B541F6A673984249
:1093C00092B000F0598600F25F8141F2A603984204
:1093D00000F08B8640F2158141F6AB13984200F005
:1093E000B38678D941F6AB43984200F020865BD92A
:1093F00041F6A663984200F0498628D941F6AB634E
:10940000984222D1CE4C40F262432168ADF814302C
:1094100005AA2046FFF752FF40F25A452168ADF8F1
:10942000145005AA2046FFF749FF216805AA40F21B
:109430005C432046ADF81430FFF740FF2168ADF8DB
:10944000145005AA2046FFF739FF12B070BD41F64F
:10945000A653984201F0F38241F6AB539842F4D1FF
:10946000B74C05AA216840F262452046ADF8145079
:10947000FFF724FF40F25A432168ADF8143005AAE3
:109480002046FFF71BFF2168ADF8145005AA2046BF
:10949000FFF714FF40F25D432168ADF8143005AAD0
:1094A0002046FFF70BFFD0E741F6A633984201F0C4
:1094B000BC822DD941F6AB33984201F0688041F669
:1094C000A6439842C1D19F4BDB7A002BBDD09E486A
:1094D000FFF7F4FDB9E741F2A633984201F00F839C
:1094E00058D941F6A603984201F0FF823FD941F6D0
:1094F000AB03984201F0D28241F6A6139842A4D160
:10950000904BDB7A002BA0D09048FFF7D7FD9CE76B
:1095100041F6A623984201F0608341F6AB239842BE
:1095200093D1874C05AA216840F262432046ADF8EA
:109530001430FFF7C3FE216805AA40F25A432046C3
:10954000ADF81430FFF7BAFE216805AA40F25B437C
:109550002046ADF81430FFF7B1FE4FF48C6321685C
:10956000ADF8143005AA2046FFF7A8FE6DE741F2DA
:10957000AB33984201F00A8341F2A67398427FF41C
:1095800064AF704BDB7A002B3FF45FAF7048FFF79E
:1095900095FD5AE741F2AB13984201F05A8240F22E
:1095A000BA8041F2A623984201F0E78241F2AB2350
:1095B00098427FF44AAF624C05AA216840F26243A8
:1095C0002046ADF81430FFF779FE216805AA40F275
:1095D0005A432046ADF81430FFF770FE216805AA03
:1095E00040F25B432046ADF81430FFF767FE40F2CF
:1095F0005C432168ADF8143005AA2046FFF75EFEF3
:1096000023E740F6A623984201F03F8340F2EA8028
:1096100040F6A653984200F0008540F2AD8040F637
:10962000AB63984201F0E38240F2948040F6A67367
:10963000984200F0A38740F6AB7398427FF405AFE1
:109640003F4C05AA216840F262432046ADF8143031
:10965000FFF734FE40F259432168ADF8143005AAF3
:109660002046FFF72BFE40F261452168ADF814500B
:1096700005AA2046FFF722FE2168ADF8145005AA7E
:109680002046FFF71BFEE0E643F2AB63984200F092
:10969000CD8640F2A28143F6A673984200F052862E
:1096A00040F2608144F2AB43984200F0268640F2DB
:1096B000018246F6AB03984200F01D8440F22281FD
:1096C00046F6AB1398427FF4C0AE1D4C05AA216844
:1096D00040F262432046ADF81430FFF7EFFD2168F9
:1096E00005AA40F259432046ADF81430FFF7E6FDD5
:1096F000216805AA40F25B432046ADF81430FFF71D
:10970000DDFD4FF48C632168ADF8143005AA2046C6
:10971000FFF7D4FD99E641F2AB03984200F04D8487
:1097200041F2A61398427FF490AE064BDB7A002BF1
:1097300040F0C4830120FDF793FEFDF7D9FE84E6D7
:1097400044650020186600203C0704001807040048
:10975000FC06040040F6AB53984201F06F8240F6DD
:10976000A66398427FF471AECE4BDB7A002B40F0BB
:10977000AD83FDF795FE68E640F6AB33984200F006
:109780003F856BD940F6A643984200F0048540F629
:10979000AB4398427FF459AEC34C05AA216840F20E
:1097A00062432046ADF81430FFF788FD216805AA12
:1097B00040F259432046ADF81430FFF77FFD216891
:1097C00005AA40F261432046ADF81430FFF776FD5C
:1097D00040F25D432168ADF8143005AA2046FFF73A
:1097E0006DFD32E640F2A673984200F05D8554D9D3
:1097F00040F6AB03984200F0328541D940F6A613FB
:10980000984200F0248540F6AB1398427FF41DAED9
:10981000A54C05AA216840F262432046ADF81430F9
:10982000FFF74CFD216805AA40F259432046ADF8E8
:109830001430FFF743FD216805AA40F2614320463A
:10984000ADF81430FFF73AFD40F25A432168ADF805
:10985000143005AA2046FFF731FDF6E540F6AB23AC
:10986000984201F06F8040F6A63398427FF4EDAD48
:109870008C4BDB7A002B40F01583FDF741FEE4E5CD
:1098800040F2AB73984200F0968440F6A6039842EB
:109890007FF4DBAD0FF0A2F8D7E540F2AB5398426E
:1098A00001F02B8040F23A8140F2A663984201F029
:1098B0001F8040F2AB6398427FF4C7AD7A4C40F210
:1098C00062432168ADF8143005AA2046FFF7F6FC84
:1098D00040F25A452168ADF8145005AA2046FFF71A
:1098E000EDFC2168ADF8145005AA2046FFF7E6FC10
:1098F00040F25E432168ADF8143005AA2046FFF718
:10990000DDFCA2E544F2A653984200F0EA8744F257
:10991000AB5398427FF499AD634C05AA216840F29D
:1099200062432046ADF81430FFF7C8FC216805AA51
:1099300040F259432046ADF81430FFF7BFFC2168D0
:1099400005AA40F25D432046ADF81430FFF7B6FC9F
:1099500040F261432168ADF8143005AA2046FFF7B4
:10996000ADFC72E543F6A643984200F0B08740F2A2
:10997000338143F6AB53984200F09A846DD943F695
:10998000A663984200F0998543F6AB6398427FF452
:109990005CAD454C05AA216840F262432046ADF813
:1099A0001430FFF78BFC40F25A432168ADF81430B5
:1099B00005AA2046FFF782FC40F259452168ADF820
:1099C000145005AA2046FFF779FC2168ADF8145021
:1099D00005AA2046FFF772FC37E542F2A6539842EB
:1099E00000F0608540F2A98142F6A613984200F08B
:1099F000DE8340F26B8142F6AB53984200F0408721
:109A000040F21E8142F6AB6398427FF41EAD264CB5
:109A100005AA216840F262432046ADF81430FFF7F2
:109A20004DFC216805AA40F259432046ADF8143098
:109A3000FFF744FC216805AA40F25B432046ADF8DD
:109A40001430FFF73BFC4FF48C632168ADF8143001
:109A500005AA2046FFF732FCF7E443F6AB439842F1
:109A600000F0E78643F6A65398427FF4EEAC0F4B26
:109A70000F4A1B781578012B00F02C82022B01F085
:109A80005881002B01F03F8105AC2046FFF716FB03
:109A9000054828230168ADF812300DF11202FFF7D6
:109AA0000DFCD2E4186600204465002084A3002049
:109AB00078A3002044F2AB13984200F08F855BD965
:109AC00044F2AB23984200F0AC8544F2AB339842A9
:109AD0007FF4BBACCA4C05AA216840F26243204621
:109AE000ADF81430FFF7EAFB40F25A432168ADF8B5
:109AF000143005AA2046FFF7E1FB40F25D452168DE
:109B0000ADF8145005AA2046FFF7D8FB2168ADF840
:109B1000145005AA2046FFF7D1FB96E440F2A64375
:109B2000984201F02E8140F2AB4398427FF48DAC15
:109B3000B34C40F262432168ADF8143005AA2046C8
:109B4000FFF7BCFB40F25A452168ADF8145005AA56
:109B50002046FFF7B3FB2168ADF8145005AA204654
:109B6000FFF7ACFB40F25C432168ADF8143005AA66
:109B70002046FFF7A3FB68E443F6AB73984200F07E
:109B8000CF8544F2AB0398427FF45FAC9C4C05AAAE
:109B9000216840F262432046ADF81430FFF78EFB97
:109BA000216805AA40F25A432046ADF81430FFF769
:109BB00085FB216805AA40F259432046ADF81430D0
:109BC000FFF77CFB40F261432168ADF8143005AA31
:109BD0002046FFF773FB38E443F6AB23984200F0CE
:109BE00078855ED943F6A633984200F0688543F63F
:109BF000AB3398427FF429AC814C05AA216840F22E
:109C000062452046ADF81450FFF758FB216805AABD
:109C100040F25A432046ADF81430FFF74FFB21685D
:109C200005AA40F25D432046ADF81430FFF746FB2D
:109C30002168ADF8145005AA2046FFF73FFB04E465
:109C400042F6AB23984200F0138542F6AB439842AC
:109C50007FF4FBAB6A4C05AA216840F262432046C0
:109C6000ADF81430FFF72AFB216805AA40F25943EA
:109C70002046ADF81430FFF721FB216805AA40F219
:109C80005E432046ADF81430FFF718FB40F25C430A
:109C90002168ADF8143005AA2046FFF70FFBFFF747
:109CA000D4BB43F2AB73984200F09E8543F6A623E3
:109CB00098427FF4CAAB534BDB7A002B40F0EE8026
:109CC00043F6A620FDF72EFDFFF7BFBB42F2AB63C4
:109CD000984200F04C856BD942F2A673984200F08E
:109CE000618142F2AB7398427FF4AFAB444C05AA5A
:109CF000216840F262432046ADF81430FFF7DEFAE7
:109D0000216805AA40F25A432046ADF81430FFF707
:109D1000D5FA216805AA40F259432046ADF814301F
:109D2000FFF7CCFA40F25C432168ADF8143005AA85
:109D30002046FFF7C3FAFFF788BB42F2A6239842FA
:109D400000F0608160D942F2AB33984200F00581A7
:109D500042D942F2A643984200F0D18142F2AB438D
:109D600098427FF472AB264C05AA216840F2624308
:109D70002046ADF81430FFF7A1FA40F25A432168AB
:109D8000ADF8143005AA2046FFF798FA40F259457D
:109D90002168ADF8145005AA2046FFF78FFA216814
:109DA000ADF8145005AA2046FFF788FAFFF74DBB1F
:109DB00042F2AB53984200F0138642F2A6639842F7
:109DC0007FF443AB0F4BDB7A002B73D142F2A660DA
:109DD000FDF7A8FCFFF739BB42F2AB23984200F035
:109DE000D88542F2A63398427FF42FAB054BDB7A3D
:109DF000002B5BD142F2A630FDF794FCFFF725BBA8
:109E0000446500201866002042F2AB03984200F03F
:109E1000478130D942F2A613984200F0938042F273
:109E2000AB1398427FF411ABBA4C05AA216840F2FB
:109E300062432046ADF81430FFF740FA216805AAC6
:109E400040F25A432046ADF81430FFF737FA216844
:109E500005AA40F25C432046ADF81430FFF72EFA15
:109E600040F25D432168ADF8143005AA2046FFF7A3
:109E700025FAFFF7EABA41F6AB73984200F056862E
:109E800042F2A60398427FF4E0AAA34BDB7ACBB957
:109E900042F2A600FDF746FCFFF7D7BA9F48FFF74E
:109EA0000DF90DE79E48FFF709F9E6E49D48FFF735
:109EB00005F99FE79C48FFF701F987E79B48FFF703
:109EC000FDF837E49A48FFF7F9F8E1E79948FFF71A
:109ED000F5F84EE4984B0295632D186840F23987E7
:109EE00012F056FA05ACCDE90001944A2046322121
:109EF00013F024FBC9E5874C05AA216840F26243B0
:109F00002046ADF81430FFF7D9F9216805AA40F2D0
:109F100059432046ADF81430FFF7D0F9216805AA5F
:109F200040F25D432046ADF81430FFF7C7F940F228
:109F30005C432168ADF8143005AA2046FFF7BEF94E
:109F4000FFF783BA744BDB7A002B40F0C38642F2F2
:109F5000A610FDF7E7FBFFF778BA6E4C05AA21685B
:109F600040F262452046ADF81450FFF7A7F921688A
:109F700005AA40F25A432046ADF81430FFF79EF987
:109F8000216805AA40F259432046ADF81430FFF786
:109F900095F92168ADF8145005AA2046FFF78EF90F
:109FA000FFF753BA5C4BDB7A002B40F09D8642F200
:109FB000A670FDF7B7FBFFF748BA564C40F2624374
:109FC0002168ADF8143005AA2046FFF777F940F272
:109FD0005A452168ADF8145005AA2046FFF76EF9DE
:109FE000216805AA40F25B432046ADF81430FFF724
:109FF00065F92168ADF8145005AA2046FFF75EF90F
:10A00000FFF723BA444BDB7A002B40F0688642F21C
:10A01000A620FDF787FBFFF718BA3F4BDB7A002B32
:10A0200040F067860020FDF71BFAFFF70EBA394CA7
:10A0300005AA216840F262452046ADF81450FFF7AA
:10A040003DF940F25A432168ADF8143005AA204684
:10A05000FFF734F92168ADF8145005AA2046FFF740
:10A060002DF940F25C432168ADF8143005AA204672
:10A07000FFF724F9FFF7E9B9274BDB7A002B3FF410
:10A08000E4A92F48FFF71AF8FFF7DFB9224BDB7A74
:10A09000002B3FF4DAA92B48FFF710F8FFF7D5B9EA
:10A0A0001C4C05AA216840F262432046ADF81430EA
:10A0B000FFF704F940F25A432168ADF8143005AABD
:10A0C0002046FFF7FBF840F25C452168ADF81450DC
:10A0D00005AA2046FFF7F2F82168ADF8145005AA4A
:10A0E0002046FFF7EBF8FFF7B0B90B4BDB7A002BFC
:10A0F00040F0E1850220FDF7B3F9FFF7A6B9064B62
:10A10000DB7A002B40F0FA8542F2A640FDF70AFB0D
:10A11000FFF79BB94465002018660020E80704009B
:10A12000A806040094070400C4070400D80604002D
:10A130005C070400C006040074A30020300604007D
:10A14000540704004C070400CB4C05AA216840F2D8
:10A1500062432046ADF81430FFF7B0F8216805AA35
:10A1600040F25A432046ADF81430FFF7A7F82168B3
:10A1700005AA40F25B432046ADF81430FFF79EF885
:10A1800040F25F432168ADF8143005AA2046FFF77E
:10A1900095F8FFF75AB9B94BDB7A002B40F0908560
:10A1A0000320FDF75DF9FDF7A3F9FFF74EB90EF0B7
:10A1B0000DFCFFF74AB9B04C40F262432168ADF89C
:10A1C000143005AA2046FFF779F840F25A45216875
:10A1D000ADF8145005AA2046FFF770F82168ADF8D5
:10A1E000145005AA2046FFF769F840F25F43216842
:10A1F000ADF8143005AA2046FFF760F8FFF725B93F
:10A200009D4C05AA216840F262432046ADF8143007
:10A21000FFF754F8216805AA40F259432046ADF8EB
:10A220001430FFF74BF8216805AA40F2614320463D
:10A23000ADF81430FFF742F840F25C432168ADF806
:10A24000143005AA2046FFF739F8FFF7FEB88C480E
:10A2500003F0D0FC8B4801F0FDFCFFF7F6B8864C0C
:10A2600040F262432168ADF8143005AA2046FFF79A
:10A2700025F840F25A452168ADF8145005AA204649
:10A28000FFF71CF82168ADF8145005AA2046FFF727
:10A2900015F84FF48C632168ADF8143005AA2046F8
:10A2A000FFF70CF8FFF7D1B80EF0A0FBFFF7CDB821
:10A2B000714C40F262432168ADF8143005AA204683
:10A2C000FEF7FCFF40F25A452168ADF8145005AA8C
:10A2D0002046FEF7F3FF216805AA40F25D432046C1
:10A2E000ADF81430FEF7EAFF2168ADF8145005AA66
:10A2F0002046FEF7E3FFFFF7A8B85F4C40F2624349
:10A300002168ADF8143005AA2046FEF7D7FF40F2C9
:10A310005A452168ADF8145005AA2046FEF7CEFF35
:10A320002168ADF8145005AA2046FEF7C7FF40F299
:10A3300059432168ADF8143005AA2046FEF7BEFF48
:10A34000FFF783B84C4C50484C4E2825FEF7B6FE1C
:10A350002168ADF8145005AA2046FEF7AFFF4B491F
:10A36000082205A813F01EF905A8FEF7A7FE21682C
:10A37000ADF812500DF112022046FEF79FFF44493E
:10A380006FF0590205A813F00DF905A8FEF796FE27
:10A390002168ADF812500DF112022046FEF78EFF33
:10A3A0003C48FEF78BFE2168ADF812500DF1120209
:10A3B0002046FEF783FF06F1470396F96A203649E7
:10A3C00005A813F0EFF805A8FEF778FE2168ADF8B0
:10A3D00012500DF112022046FEF770FF06F1240321
:10A3E00096F946202D4905A813F0DCF805A8FEF7DC
:10A3F00065FE2168ADF812500DF112022046FEF7FD
:10A400005DFF96F98E20264906F16B0305A813F02F
:10A41000C9F805A8FEF752FE2168ADF812500DF1FB
:10A4200012022046FEF74AFFFFF70FB8124C05AAAA
:10A43000216840F262452046ADF81450FEF73EFF19
:10A4400040F25A432168ADF8143005AA2046FEF7C1
:10A4500035FF2168ADF8145005AA2046FEF72EFFFF
:10A4600040F25F432168ADF8143005AA2046FEF79C
:10A4700025FFFEF7EABF00BF4465002018660020F4
:10A4800000A40020C0A60020500804006C080400AE
:10A490006C0204008002040094020400A402040080
:10A4A000B4020400C54BDB7A002B40F00E8442F26C
:10A4B000A650FDF737F9FEF7C8BFC14CC1482825A3
:10A4C000FEF7FCFD2168ADF8145005AA2046FEF702
:10A4D000F5FEBD48FEF7F2FD2168ADF8145005AA5F
:10A4E0002046FEF7EBFEB948FEF7E8FD2168ADF81F
:10A4F000145005AA2046FEF7E1FEB548FEF7DEFD42
:10A500002168ADF8145005AA2046FEF7D7FE0EF0DC
:10A51000C5F9B049024605A813F044F805A8FEF7AE
:10A52000CDFD2168ADF812500DF112022046FEF764
:10A53000C5FE0EF0F3F9A849024605A813F032F85B
:10A5400005A8FEF7BBFD2168ADF812500DF112020F
:10A550002046FEF7B3FEA14BA149002205A813F047
:10A5600021F805A8FEF7AAFD2168ADF812500DF1FB
:10A5700012022046FEF7A2FEFEF767BF8F4BDB7A82
:10A58000002B40F09083FCF7A1FFFEF75EBF8C4CE0
:10A5900005AA216840F262432046ADF81430FEF768
:10A5A0008DFE216805AA40F25A432046ADF81430CA
:10A5B000FEF784FE216805AA40F25B432046ADF811
:10A5C0001430FEF77BFE40F261432168ADF8143091
:10A5D00005AA2046FEF772FEFEF737BF784C05AAA3
:10A5E000216840F26245204640F25A46ADF81450C8
:10A5F000FEF764FE2168ADF8146005AA2046FEF758
:10A600005DFE2168ADF8146005AA2046FEF756FEEF
:10A610002168ADF8145005AA2046FEF74FFEFEF75C
:10A6200014BF674C05AA216840F262432046ADF88A
:10A630001430FEF743FE216805AA40F25A43204633
:10A64000ADF81430FEF73AFE216805AA40F25D43EA
:10A650002046ADF81430FEF731FE40F25B4321682E
:10A66000ADF8143005AA2046FEF728FEFEF7EDBE31
:10A67000534C05AA216840F262432046ADF81430DD
:10A68000FEF71CFE216805AA40F259432046ADF8AA
:10A690001430FEF713FE216805AA40F25E432046FF
:10A6A000ADF81430FEF70AFE40F25D432168ADF8C4
:10A6B000143005AA2046FEF701FEFEF7C6BE3F4B4A
:10A6C000DB7A002B3EF4C1AE4648FEF7F7FCFEF7FE
:10A6D000BCBE3B4C05AA216840F262432046ADF85F
:10A6E0001430FEF7EBFD216805AA40F25A432046DC
:10A6F000ADF81430FEF7E2FD216805AA40F25C4394
:10A700002046ADF81430FEF7D9FD40F261432168D0
:10A71000ADF8143005AA2046FEF7D0FDFEF795BE31
:10A72000274C05AA216840F262432046ADF8143058
:10A73000FEF7C4FD216805AA40F25A432046ADF851
:10A740001430FEF7BBFD216805AA40F259432046AC
:10A75000ADF81430FEF7B2FD4FF48C632168ADF80C
:10A76000143005AA2046FEF7A9FDFEF76EBE144C74
:10A7700005AA216840F262432046ADF81430FEF786
:10A780009DFD216805AA40F25A432046ADF81430D9
:10A79000FEF794FD216805AA40F259432046ADF822
:10A7A0001430FEF78BFD40F25B432168ADF81430A6
:10A7B00005AA2046FEF782FDFEF747BE1866002078
:10A7C00044650020F4010400140204003402040073
:10A7D0000C080400280804003C0804000000204085
:10A7E00058020400FC070400C94C05AA216840F285
:10A7F00062452046ADF81450FEF760FD40F25A4322
:10A800002168ADF8143005AA2046FEF757FD2168EF
:10A81000ADF8145005AA2046FEF750FD40F25E4305
:10A820002168ADF8143005AA2046FEF747FDFEF773
:10A830000CBEB74C05AA216840F262432046ADF831
:10A840001430FEF73BFD216805AA40F25A4320462A
:10A85000ADF81430FEF732FD216805AA40F25D43E1
:10A860002046ADF81430FEF729FD40F25943216827
:10A87000ADF8143005AA2046FEF720FDFEF7E5BD31
:10A88000A34C05AA216840F262432046ADF814307B
:10A89000FEF714FD216805AA40F259432046ADF8A1
:10A8A0001430FEF70BFD216805AA40F25D432046F7
:10A8B000ADF81430FEF702FD40F25C432168ADF8BC
:10A8C000143005AA2046FEF7F9FCFEF7BEBD914BF9
:10A8D000DB7A002B3EF4B9AD8F48FEF7EFFBFEF7B5
:10A8E000B4BD8C4AD37A83F00103D372FEF7ADBDB9
:10A8F0008A4804F0A7F9FEF7A8BD854C40F26243F0
:10A900002168ADF8143005AA2046FEF7D7FC40F2C6
:10A910005A452168ADF8145005AA2046FEF7CEFC32
:10A920002168ADF8145005AA2046FEF7C7FC40F296
:10A930005D432168ADF8143005AA2046FEF7BEFC41
:10A94000FEF783BD724C05AA216840F2624320469F
:10A95000ADF81430FEF7B2FC216805AA40F2594365
:10A960002046ADF81430FEF7A9FC216805AA40F294
:10A9700061432046ADF81430FEF7A0FC40F25B4383
:10A980002168ADF8143005AA2046FEF797FCFEF7C3
:10A990005CBD5F4C05AA216840F262432046ADF8D9
:10A9A0001430FEF78BFC216805AA40F25A4320467A
:10A9B000ADF81430FEF782FC216805AA40F25C4332
:10A9C0002046ADF81430FEF779FC40F25E43216872
:10A9D000ADF8143005AA2046FEF770FCFEF735BD31
:10A9E0004B4C40F262432168ADF8143005AA204672
:10A9F000FEF764FC40F25A452168ADF8145005AAF0
:10AA00002046FEF75BFC216805AA40F25943204628
:10AA1000ADF81430FEF752FC2168ADF8145005AAC9
:10AA20002046FEF74BFCFEF710BD3A4BDB7A002BBD
:10AA30003EF40BAD3A48FEF741FBFEF706BD354B41
:10AA4000DB7A002B3EF401AD3648FEF737FBFEF70C
:10AA5000FCBC2F4C05AA216840F262432046ADF8A9
:10AA60001430FEF72BFC40F25A432168ADF8143045
:10AA700005AA2046FEF722FC40F25B452168ADF8AE
:10AA8000145005AA2046FEF719FC2168ADF81450B1
:10AA900005AA2046FEF712FCFEF7D7BC1C4C05AAFF
:10AAA000216840F262432046ADF81430FEF706FC00
:10AAB000216805AA40F25A432046ADF81430FEF74B
:10AAC000FDFB216805AA40F25B432046ADF8143037
:10AAD000FEF7F4FB40F25E432168ADF8143005AA9E
:10AAE0002046FEF7EBFBFEF7B0BC0A4BDB7A002BEF
:10AAF0003EF4ABAC0C48FEF7E1FAFEF7A6BC054B02
:10AB0000DB7A002B40F0D380FCF7BEFCFEF79DBC47
:10AB10004465002018660020040804006CA700208B
:10AB20003407040044070400040704009B4C05AAF2
:10AB3000216840F262432046ADF81430FEF7BEFBB8
:10AB4000216805AA40F25A432046ADF81430FEF7BA
:10AB5000B5FB216805AA40F25C432046ADF81430ED
:10AB6000FEF7ACFB40F25B432168ADF8143005AA58
:10AB70002046FEF7A3FBFEF768BC894BDB7A002B6F
:10AB800040F08D80FCF772FCFEF75FBC834C05AA99
:10AB9000216840F262432046ADF81430FEF78EFB88
:10ABA000216805AA40F25A432046ADF81430FEF75A
:10ABB00085FB216805AA40F25B432046ADF81430BE
:10ABC000FEF77CFB40F25D432168ADF8143005AA26
:10ABD0002046FEF773FBFEF738BC714BDB7A002B87
:10ABE0003EF433AC6F48FEF769FAFEF72EBC6B4CAF
:10ABF00005AA216840F262432046ADF81430FEF702
:10AC00005DFB216805AA40F25A432046ADF8143096
:10AC1000FEF754FB216805AA40F25B432046ADF8DD
:10AC20001430FEF74BFB40F259432168ADF8143065
:10AC300005AA2046FEF742FBFEF707BC574C05AAC3
:10AC4000216840F262432046ADF81430FEF736FB2F
:10AC5000216805AA40F259432046ADF81430FEF7AA
:10AC60002DFB216805AA40F261432046ADF814305F
:10AC7000FEF724FB40F25E432168ADF8143005AACC
:10AC80002046FEF71BFBFEF7E0BB454BDB7A002BB3
:10AC90003EF4F3AD4448FEF711FAFEF7EEBD43482B
:10ACA000FEF70CFA6EE74248FEF708FA6BE44148FB
:10ACB000FEF704FA28E74048FEF700FAFFF71ABA51
:10ACC0003E48FEF7FBF9FFF76BBA3D48FEF7F6F991
:10ACD000FFF7EDBB3B48FEF7F1F9FFF738B93A480B
:10ACE000FEF7ECF9FFF793B93848FEF7E7F9FFF7FD
:10ACF0005EB93748FEF7E2F9FFF794B93548FEF739
:10AD0000DDF9FFF701BA344B186811F041FB0B462F
:10AD1000324902460868CDE9022311F039FB05AC3F
:10AD2000CDE900012E4A2046322112F007FCFEF741
:10AD3000ACBE294B632D186817D911F029FB05AC5F
:10AD400002460B4600952749204612F02BFCFEF7E1
:10AD50009CBE11F01DFB05ACCDE90001224A204646
:10AD6000322112F0EBFBFEF790BE11F011FB05ACA7
:10AD700002460B4600951D49204612F013FCFEF7D3
:10AD800084BEBFF34F8F1A491A4BCA6802F4E062BF
:10AD90001343CB60BFF34F8F00BFFDE74465002036
:10ADA000186600202C070400A0060400E406040036
:10ADB000C8060400F0060400D0060400B006040033
:10ADC000B40704006C07040080070400D4070400E3
:10ADD000B8060400A407040074A3002080A3002088
:10ADE000100604006006040048060400780604000B
:10ADF00000ED00E00400FA05F0B53B4C83B0FCF731
:10AE0000B3F82388002B3ED1384C23882BB140F275
:10AE1000A54293423CD000232380354CD4E9002343
:10AE200093421FD00025CDE9005533F8022C314E56
:10AE300033F8027D636052BA6846ADF80020FCF733
:10AE40001DFEB06800EB40000AF002FED4E90023CA
:10AE50009A424FEA17211FD033F8023CBB4236D04A
:10AE600003B0F0BD244B1C7834BB244E358845BB61
:10AE7000234E3488DCB9234D28880028F0D0FCF715
:10AE800015FE2C80ECE7FEF7BDF900232380BBE71D
:10AE90001D48FEF713F9BEE76846ADF80050FCF711
:10AEA000EDFDB06800EB40000AF0D2FDD8E7204687
:10AEB000FCF7D0FE3580D3E71448FCF7DFFD03B084
:10AEC000F0BD2846FEF778FA348003B0F0BD68463E
:10AED0008DF800108DF80150FCF7D0FDB06800EB44
:10AEE00040000AF0B5FDBBE7266300207C6300202C
:10AEF000446500200466002068630020746300201D
:10AF0000806300207E6300209006040054630020CC
:10AF100070B5FEF71BF8FFF76FFF104B104E1D6862
:10AF2000FBF776FE04460F4802F0E2FD2C1B011EE3
:10AF300018BF0121204600F0F1FB337813B9737874
:10AF400033B970BD2046FCF777FB7378002BF8D03F
:10AF50002046BDE87040FCF7EBBB00BF1866002040
:10AF60000466002000A4002038B5114D114C28467D
:10AF70000EF0E2FB104A1149284611F097FA2046DC
:10AF80000EF0DAFB0C4A0D49204611F08FFA0C48FE
:10AF9000FBF79EFD0B4800F081F90B480B49064A70
:10AFA0000023C0E900338360BDE8384011F07EBA69
:10AFB000AC660020FC65002000600020E9960300DC
:10AFC000A8660020F865002044650020C16A0200E0
:10AFD0002DE9F04FADF5117D2149DFF89080C022B9
:10AFE000684611F00BFB1F49C02230A811F006FB88
:10AFF0001D4960A8C02211F001FBE9460DF5C07A99
:10B000000DF1C00BA8F5736457465E464D4600220D
:10B010001146204655F8043BFBF7C4FC204656F881
:10B02000043B00220121FBF7BDFC204657F8043BFE
:10B030000022022104F5A274FBF7B4FC4445E6D1DA
:10B0400009F1300930AB99450BF1300B0AF1300AA8
:10B0500004F57368D6D10DF5117DBDE8F08F00BF02
:10B060008808040048090400080A0400E475002068
:10B0700010B5694C00212046FBF782FC04F5A27054
:10B080000021FBF77DFC04F522700021FBF778FC22
:10B0900004F573700021FBF773FC04F5A260002136
:10B0A000FBF76EFC04F254600021FBF769FC04F529
:10B0B000F3600021FBF764FC04F6DC000021FBF7E1
:10B0C0005FFC04F522600021FBF75AFC04F66430B3
:10B0D0000021FBF755FC04F6A8400021FBF750FCCB
:10B0E00004F6EC500021FBF74BFC04F573600021E3
:10B0F000FBF746FC00214948FBF742FC0021484889
:10B10000FBF73EFC00214748FBF73AFC04F5A25050
:10B110000021FBF735FC00214348FBF731FC0021FF
:10B120004248FBF72DFC00214148FBF729FC002198
:10B130004048FBF725FC00213F48FBF721FC00219C
:10B140003E48FBF71DFC00213D48FBF719FC04F5C8
:10B15000F3500021FBF714FC00213A48FBF710FCE8
:10B1600000213948FBF70CFC00213848FBF708FCAC
:10B1700000213748FBF704FC00213648FBF700FCB0
:10B1800000213548FBF7FCFB00213448FBF7F8FBB6
:10B1900004F522500021FBF7F3FB00213048FBF7B8
:10B1A000EFFB00212F48FBF7EBFB00212E48FBF7BC
:10B1B000E7FB00212D48FBF7E3FB00212C48FBF7C0
:10B1C000DFFB00212B48FBF7DBFB00212A48FBF7C4
:10B1D000D7FB00212948FBF7D3FB00212848FBF7C8
:10B1E000CFFB00212748FBF7CBFB00212648FBF7CC
:10B1F000C7FB00212548FBF7C3FB00212448FBF7D0
:10B20000BFFB00212348FBF7BBFBBDE810402248F1
:10B210000021FBF7B5BB00BFB466002028770020F3
:10B220006C780020B0790020387C00207C7D0020E4
:10B23000C07E002004800020488100208C820020F5
:10B24000D0830020588600209C870020E0880020C2
:10B25000248A0020688B0020AC8C0020F08D002018
:10B2600078900020BC91002000930020449400209E
:10B2700088950020CC96002010980020549900203A
:10B28000989A0020DC9B0020209D0020649E0020D6
:10B29000A89F0020ECA0002030A20020704700BF33
:10B2A00030B42E4A2E4982B00023012009240DF12A
:10B2B0000605C1F8F005C1F80005C1F81435C1F85C
:10B2C0001035C2F81435C2F81035C2F82435C2F86A
:10B2D0002035C2F83435C2F83035C2F84435C2F8EA
:10B2E0004035C2F85435C2F85035C2F86435C2F85A
:10B2F0006035C2F87435C2F87035C1F818350A46A1
:10B30000C1F81445C1F81045C1F82C56C1F83006F3
:10B310000860D2F80031002BFBD000200123104937
:10B32000C2F800015360D1F80431002BFBD000209B
:10B3300001230B4AC1F804018B60D2F81431002BB1
:10B34000FBD0BDF90600002320EAE070C2F81431FA
:10B35000C2F8003502B030BC704700BF107000402A
:10B360000070004010B502200DF04EFB0C200DF0D7
:10B3700045FB01200AF06CFB1F200DF075FB054C0E
:10B380000346002023600DF03FFB0A200DF036FB42
:10B39000206810BD7CA3002038B5564C20780128C9
:10B3A00000F08E80022848D0FFF77AFF4FF46163E7
:10B3B00003FB00F0504A514D40F6B733800A9842E3
:10B3C00098BF012310604FF0020098BF23700DF06A
:10B3D0001BFB0C200DF012FB01200AF039FB1F2093
:10B3E0000DF042FB034600202B600DF00DFB0A2000
:10B3F0000DF004FBD5ED007A9FED417A414AF8EE5D
:10B40000677A40F6485367EE877AFCEEE77A17EEE4
:10B41000900A9842C2ED007A5FD902232370B0F5FA
:10B42000616F5CD33849A0F56160C0EB0010A1FBEF
:10B43000003149090A31C9B239E00DF0E5FA0C20B2
:10B440000DF0DCFA01200AF003FB1F200DF00CFBCD
:10B450002A4D034600202B600DF0D6FA0A200DF08D
:10B46000CDFAD5ED007A9FED267A264A2378F8EEBC
:10B47000677A67EE877AFCEEE77A17EE900AC2EDFC
:10B48000007A012B0CD140F6272398420ED940F6C2
:10B49000B83398422BD8A0F62820C0F3870106E0E5
:10B4A000022B0BD140F6E3439842B8D80021174B4A
:10B4B00017481970BDE8384002F0D0BB3221F6E7DA
:10B4C000FFF7EEFE4FF4616303FB00F00A490D4AFB
:10B4D0002378800A08601060D3E72378D1E70D4B0A
:10B4E000A0F6E441A3FB0131C1F30711DFE76421BA
:10B4F000DDE700BF84A3002080A300207CA3002000
:10B500000088833F74A300201F85EB5178A300209F
:10B5100088A300208988888810B5054C204602F051
:10B5200073FB2046034A0449BDE8104010F0BEBF3B
:10B5300088A30020006000203DB5020010B5044B38
:10B54000044640F8103B00F0ABFB204610BD00BFA6
:10B55000900B040008B54FF01023D3F80C32DB0732
:10B5600000D408BD164B0122C3F80425D3F80024EB
:10B57000002AFBD04FF01021114AD1F80C3223F0F1
:10B580000103C1F80C32D2F80034002BFBD00023A9
:10B590000B49C2F80435D1F80034002BFBD04FF42E
:10B5A000FA700AF055FABFF34F8F0649064BCA6886
:10B5B00002F4E0621343CB60BFF34F8F00BFFDE79F
:10B5C00000E0014000ED00E00400FA0530B4012184
:10B5D0004FF0A042134B144D01FA00F4C2F8184585
:10B5E000C2F80C450324C3F80C45002242F2107443
:10B5F000C3F86005C3F80425C3F81025C3F8142563
:10B60000C3F80845C3F82415C3F82C25C3F8205502
:10B61000C3F8282530BCC3F80022C3F80015996090
:10B62000704700BF0020024028600020054A064BFA
:10B630006FEA40406FEA504001211080C3F8202596
:10B6400099607047286000200020024010B5012159
:10B6500004460C200DF0D4FA2CB1BDE810400121B5
:10B660000C200DF00DBB21460C20BDE810400DF064
:10B6700007BB00BF704700BF30B5054683B003204D
:10B680000C4601210DF0BCFA012103200DF0B8FA9F
:10B69000F5B974B9C8200AF0DBF9C8200AF0D8F966
:10B6A000C8200AF0D5F9C82003B0BDE830400AF040
:10B6B000CFB94FF0FF3404F0010103200DF0E0FAA0
:10B6C000013CC8200AF0C4F9611DF4D103B030BDBB
:10B6D00074B94FF0FF3404F0010103200DF0D0FAEB
:10B6E000013CC8200AF0B4F9621DF4D103B030BDAA
:10B6F0004FF0FF3404F00101032001910DF0C0FA76
:10B70000019903200DF0BCFA013CC8200AF0A0F911
:10B71000631DEFD103B030BD33DF704738B547F25A
:10B720003053984223D919B3214B98421FD9214C49
:10B73000FCF72EF9251D207801210DF061FA14F88F
:10B74000010B00210DF09CFAAC42F4D11A4C04F12B
:10B750000C0514F8010B04210DF052FAA542F8D1A2
:10B760000020FFF773FFBDE83840FFF7D5BF38BDB5
:10B77000104CFCF70DF9251D207801210DF040FA41
:10B7800014F8010B00210DF07BFAA542F4D10A4C0C
:10B7900004F10C0514F8010B04210DF031FAAC4250
:10B7A000F8D10020FFF752FFBDE83840FFF7B4BFE3
:10B7B000C0270900246000201860002072DF704755
:10B7C00073DF704777DF704738B5054608460C468B
:10B7D00001F09EFC102803D080280ED0012038BD37
:10B7E000EB7F22881B2B0EDCE9180320E8544870FD
:10B7F0004A80EB7F0433EB77F0E76368002BEDD0F2
:10B80000E97F0D2901DD002038BD6A181120685438
:10B810000721517058681C689968DB68C2F80E30BF
:10B82000C2F80600C2F80240C2F80A10EB7F1233D9
:10B83000EB77012038BD00BF0022C277027070474D
:10B8400000B50246D1E9020183B06B4683E80300EC
:10B8500019461046FFF7B8FF03B05DF804FB00BFC0
:10B86000F0B589B0064620221348694602F0ACF8CC
:10B87000F37FC2181D2A0CDDC3F11D04E4B2E218E7
:10B880001D2A4FF00005D8BF082705DD284609B05E
:10B89000F0BD044601250927F218601CF0546946E2
:10B8A0005770901C224610F0A9FEF27F0232144419
:10B8B0002846F47709B0F0BD00A4002010B5044676
:10B8C000094802F0DFF8E37F1C2B01DD002010BDEA
:10B8D000E2180221E1540A2390705370E37F03338E
:10B8E000E377012010BD00BF00A40020C27F1C2A06
:10B8F00001DD0020704710B403469C1802209854C4
:10B900000120A1706070DA7F0332DA775DF8044BB2
:10B91000704700BFC37F1B2B01DD0020704710B4B0
:10B92000C2180324C454192351805370C37F0433B5
:10B93000C3775DF8044B0120704700BF10B4084A7C
:10B94000084C094902620022C0E90A41C0E90C2200
:10B950005DF8044B0270C27742628263704700BF99
:10B96000FF0101002000F40020001E00C185704787
:10B97000018581854285704780F82210704700BF9D
:10B98000F0B5154605EB8503274A89B0044603EB5D
:10B99000830300200E469B0011680290CDE90460ED
:10B9A000ADF8143094F821308DF80830CB07CDE98C
:10B9B0000600039009D41D491D4BC87FE77F98817D
:10B9C00001201C6099609F801060194902AA04F14F
:10B9D0002000FFF7F3FE10B1002009B0F0BD94F88D
:10B9E00020101448019102F04DF8019902460120FF
:10B9F000FFF7E8FE0028EFD194F820000121FFF7BF
:10BA0000DFFE0028E8D10B4802F0B8F8628EA68568
:10BA100095424FF0010094BF521B921A628684F83F
:10BA2000230009B0F0BD00BFE8A300203CA6002021
:10BA3000ECA3002000A40020F0B5002361F30F0365
:10BA40002D4D044661F31F4389B00363FA21284654
:10BA500002F020F8E68D2949278D0868049706EB47
:10BA6000860303EB830300229B000592ADF814309C
:10BA700094F8213002928DF80830C307CDE90622F0
:10BA800003920BD41E4BE27F95F85B029A8005F57A
:10BA90000F7501221C609D6098810A60184902AAF6
:10BAA00004F12000FFF78AFE10B1002009B0F0BDBC
:10BAB00094F820101048019101F0E4FF019902462A
:10BAC0000120FFF77FFE0028EFD194F8200001212C
:10BAD000FFF776FE0028E8D1074802F04FF8638EA2
